{
  "_format": "hh-sol-artifact-1",
  "contractName": "UniswapClone",
  "sourceName": "contracts/UniswapClone.sol",
  "abi": [
    {
      "inputs": [
        {
          "internalType": "contract IERC20",
          "name": "_token",
          "type": "address"
        },
        {
          "internalType": "contract IUCToken",
          "name": "_lpToken",
          "type": "address"
        }
      ],
      "stateMutability": "nonpayable",
      "type": "constructor"
    },
    {
      "anonymous": false,
      "inputs": [
        {
          "indexed": false,
          "internalType": "address",
          "name": "sender",
          "type": "address"
        },
        {
          "indexed": false,
          "internalType": "uint256",
          "name": "liquidityMinted",
          "type": "uint256"
        },
        {
          "indexed": false,
          "internalType": "uint256",
          "name": "tokenValue",
          "type": "uint256"
        },
        {
          "indexed": false,
          "internalType": "uint256",
          "name": "maticValue",
          "type": "uint256"
        }
      ],
      "name": "Deposited",
      "type": "event"
    },
    {
      "anonymous": false,
      "inputs": [
        {
          "indexed": false,
          "internalType": "address",
          "name": "sender",
          "type": "address"
        },
        {
          "indexed": false,
          "internalType": "uint256",
          "name": "tokenValue",
          "type": "uint256"
        }
      ],
      "name": "MaticToToken",
      "type": "event"
    },
    {
      "anonymous": false,
      "inputs": [
        {
          "indexed": false,
          "internalType": "address",
          "name": "sender",
          "type": "address"
        },
        {
          "indexed": false,
          "internalType": "uint256",
          "name": "maticAmount",
          "type": "uint256"
        }
      ],
      "name": "TokenToMatic",
      "type": "event"
    },
    {
      "anonymous": false,
      "inputs": [
        {
          "indexed": false,
          "internalType": "address",
          "name": "sender",
          "type": "address"
        },
        {
          "indexed": false,
          "internalType": "uint256",
          "name": "amount",
          "type": "uint256"
        },
        {
          "indexed": false,
          "internalType": "uint256",
          "name": "ethWithdrawn",
          "type": "uint256"
        },
        {
          "indexed": false,
          "internalType": "uint256",
          "name": "tokenAmount",
          "type": "uint256"
        }
      ],
      "name": "Withdraw",
      "type": "event"
    },
    {
      "inputs": [],
      "name": "deposit",
      "outputs": [
        {
          "internalType": "uint256",
          "name": "",
          "type": "uint256"
        }
      ],
      "stateMutability": "payable",
      "type": "function"
    },
    {
      "inputs": [],
      "name": "init",
      "outputs": [],
      "stateMutability": "nonpayable",
      "type": "function"
    },
    {
      "inputs": [],
      "name": "lpToken",
      "outputs": [
        {
          "internalType": "contract IUCToken",
          "name": "",
          "type": "address"
        }
      ],
      "stateMutability": "view",
      "type": "function"
    },
    {
      "inputs": [],
      "name": "maticToToken",
      "outputs": [],
      "stateMutability": "payable",
      "type": "function"
    },
    {
      "inputs": [
        {
          "internalType": "uint256",
          "name": "xToken",
          "type": "uint256"
        },
        {
          "internalType": "uint256",
          "name": "xTokenReserve",
          "type": "uint256"
        },
        {
          "internalType": "uint256",
          "name": "yTokenReserve",
          "type": "uint256"
        }
      ],
      "name": "price",
      "outputs": [
        {
          "internalType": "uint256",
          "name": "outputAmount",
          "type": "uint256"
        }
      ],
      "stateMutability": "pure",
      "type": "function"
    },
    {
      "inputs": [],
      "name": "token",
      "outputs": [
        {
          "internalType": "contract IERC20",
          "name": "",
          "type": "address"
        }
      ],
      "stateMutability": "view",
      "type": "function"
    },
    {
      "inputs": [],
      "name": "tokenReserve",
      "outputs": [
        {
          "internalType": "uint256",
          "name": "",
          "type": "uint256"
        }
      ],
      "stateMutability": "view",
      "type": "function"
    },
    {
      "inputs": [
        {
          "internalType": "uint256",
          "name": "amount",
          "type": "uint256"
        }
      ],
      "name": "tokenToMatic",
      "outputs": [],
      "stateMutability": "nonpayable",
      "type": "function"
    },
    {
      "inputs": [],
      "name": "totalLiquidity",
      "outputs": [
        {
          "internalType": "uint256",
          "name": "",
          "type": "uint256"
        }
      ],
      "stateMutability": "view",
      "type": "function"
    },
    {
      "inputs": [
        {
          "internalType": "uint256",
          "name": "amount",
          "type": "uint256"
        }
      ],
      "name": "withdraw",
      "outputs": [
        {
          "internalType": "uint256",
          "name": "",
          "type": "uint256"
        },
        {
          "internalType": "uint256",
          "name": "",
          "type": "uint256"
        }
      ],
      "stateMutability": "nonpayable",
      "type": "function"
    },
    {
      "stateMutability": "payable",
      "type": "receive"
    }
  ],
  "bytecode": "0x60806040523480156200001157600080fd5b5060405162001aad38038062001aad833981810160405281019062000037919062000183565b816000806101000a81548173ffffffffffffffffffffffffffffffffffffffff021916908373ffffffffffffffffffffffffffffffffffffffff16021790555080600160006101000a81548173ffffffffffffffffffffffffffffffffffffffff021916908373ffffffffffffffffffffffffffffffffffffffff1602179055505050620001ca565b600080fd5b600073ffffffffffffffffffffffffffffffffffffffff82169050919050565b6000620000f282620000c5565b9050919050565b60006200010682620000e5565b9050919050565b6200011881620000f9565b81146200012457600080fd5b50565b60008151905062000138816200010d565b92915050565b60006200014b82620000e5565b9050919050565b6200015d816200013e565b81146200016957600080fd5b50565b6000815190506200017d8162000152565b92915050565b600080604083850312156200019d576200019c620000c0565b5b6000620001ad8582860162000127565b9250506020620001c0858286016200016c565b9150509250929050565b6118d380620001da6000396000f3fe6080604052600436106100955760003560e01c8063c6461a9811610059578063c6461a981461017c578063cbcb3171146101a5578063d0e30db0146101d0578063e1c7392a146101ee578063fc0c546a146102055761009c565b806315770f92146100a15780631bd3f639146100cc5780632071a9f4146100d65780632e1a7d4d146101135780635fcbd285146101515761009c565b3661009c57005b600080fd5b3480156100ad57600080fd5b506100b6610230565b6040516100c3919061102e565b60405180910390f35b6100d4610236565b005b3480156100e257600080fd5b506100fd60048036038101906100f8919061107a565b610452565b60405161010a919061102e565b60405180910390f35b34801561011f57600080fd5b5061013a600480360381019061013591906110cd565b61048a565b6040516101489291906110fa565b60405180910390f35b34801561015d57600080fd5b506101666108be565b60405161017391906111a2565b60405180910390f35b34801561018857600080fd5b506101a3600480360381019061019e91906110cd565b6108e4565b005b3480156101b157600080fd5b506101ba610b67565b6040516101c7919061102e565b60405180910390f35b6101d8610b6d565b6040516101e5919061102e565b60405180910390f35b3480156101fa57600080fd5b50610203610ec7565b005b34801561021157600080fd5b5061021a610ff1565b60405161022791906111de565b60405180910390f35b60035481565b60003411610279576040517f08c379a00000000000000000000000000000000000000000000000000000000081526004016102709061127c565b60405180910390fd5b6000344761028791906112cb565b905060008060009054906101000a900473ffffffffffffffffffffffffffffffffffffffff1673ffffffffffffffffffffffffffffffffffffffff166370a08231306040518263ffffffff1660e01b81526004016102e59190611320565b602060405180830381865afa158015610302573d6000803e3d6000fd5b505050506040513d601f19601f820116820180604052508101906103269190611350565b90506000610335348484610452565b905060008054906101000a900473ffffffffffffffffffffffffffffffffffffffff1673ffffffffffffffffffffffffffffffffffffffff1663a9059cbb33836040518363ffffffff1660e01b815260040161039292919061137d565b6020604051808303816000875af11580156103b1573d6000803e3d6000fd5b505050506040513d601f19601f820116820180604052508101906103d591906113de565b610414576040517f08c379a000000000000000000000000000000000000000000000000000000000815260040161040b90611457565b60405180910390fd5b7f6dad6513ae0ad4e455953fe81884340543d50ce706af59c3845c6c0aa1ec540c338260405161044592919061137d565b60405180910390a1505050565b60008082856104619190611477565b90506000858561047191906114b9565b9050808261047f919061151c565b925050509392505050565b60008082600460003373ffffffffffffffffffffffffffffffffffffffff1673ffffffffffffffffffffffffffffffffffffffff16815260200190815260200160002054101561050f576040517f08c379a0000000000000000000000000000000000000000000000000000000008152600401610506906115bf565b60405180910390fd5b600047905060008060009054906101000a900473ffffffffffffffffffffffffffffffffffffffff1673ffffffffffffffffffffffffffffffffffffffff166370a08231306040518263ffffffff1660e01b81526004016105709190611320565b602060405180830381865afa15801561058d573d6000803e3d6000fd5b505050506040513d601f19601f820116820180604052508101906105b19190611350565b9050600060035483876105c49190611477565b6105ce919061151c565b9050600060035483886105e19190611477565b6105eb919061151c565b905086600460003373ffffffffffffffffffffffffffffffffffffffff1673ffffffffffffffffffffffffffffffffffffffff1681526020019081526020016000205461063891906112cb565b600460003373ffffffffffffffffffffffffffffffffffffffff1673ffffffffffffffffffffffffffffffffffffffff168152602001908152602001600020819055508660035461068991906112cb565b600381905550600160009054906101000a900473ffffffffffffffffffffffffffffffffffffffff1673ffffffffffffffffffffffffffffffffffffffff166379cc679033896040518363ffffffff1660e01b81526004016106ec92919061137d565b600060405180830381600087803b15801561070657600080fd5b505af115801561071a573d6000803e3d6000fd5b5050505060003373ffffffffffffffffffffffffffffffffffffffff168360405161074490611610565b60006040518083038185875af1925050503d8060008114610781576040519150601f19603f3d011682016040523d82523d6000602084013e610786565b606091505b50509050806107ca576040517f08c379a00000000000000000000000000000000000000000000000000000000081526004016107c190611697565b60405180910390fd5b60008054906101000a900473ffffffffffffffffffffffffffffffffffffffff1673ffffffffffffffffffffffffffffffffffffffff1663a9059cbb33846040518363ffffffff1660e01b815260040161082592919061137d565b6020604051808303816000875af1158015610844573d6000803e3d6000fd5b505050506040513d601f19601f8201168201806040525081019061086891906113de565b61087157600080fd5b7f02f25270a4d87bea75db541cdfe559334a275b4a233520ed6c0a2429667cca94338985856040516108a694939291906116b7565b60405180910390a18282965096505050505050915091565b600160009054906101000a900473ffffffffffffffffffffffffffffffffffffffff1681565b60008111610927576040517f08c379a000000000000000000000000000000000000000000000000000000000815260040161091e9061176e565b60405180910390fd5b600047905060008060009054906101000a900473ffffffffffffffffffffffffffffffffffffffff1673ffffffffffffffffffffffffffffffffffffffff166370a08231306040518263ffffffff1660e01b81526004016109889190611320565b602060405180830381865afa1580156109a5573d6000803e3d6000fd5b505050506040513d601f19601f820116820180604052508101906109c99190611350565b905060006109d8848385610452565b905060008054906101000a900473ffffffffffffffffffffffffffffffffffffffff1673ffffffffffffffffffffffffffffffffffffffff166323b872dd3330876040518463ffffffff1660e01b8152600401610a379392919061178e565b6020604051808303816000875af1158015610a56573d6000803e3d6000fd5b505050506040513d601f19601f82011682018060405250810190610a7a91906113de565b5060003373ffffffffffffffffffffffffffffffffffffffff1682604051610aa190611610565b60006040518083038185875af1925050503d8060008114610ade576040519150601f19603f3d011682016040523d82523d6000602084013e610ae3565b606091505b5050905080610b27576040517f08c379a0000000000000000000000000000000000000000000000000000000008152600401610b1e90611811565b60405180910390fd5b7f1bf7f115b5bfb24c90caf5673afb9e4f37bb44539d5a682579cb01ce3b3fac4b3383604051610b5892919061137d565b60405180910390a15050505050565b60025481565b6000803447610b7c91906112cb565b905060008060009054906101000a900473ffffffffffffffffffffffffffffffffffffffff1673ffffffffffffffffffffffffffffffffffffffff166370a08231306040518263ffffffff1660e01b8152600401610bda9190611320565b602060405180830381865afa158015610bf7573d6000803e3d6000fd5b505050506040513d601f19601f82011682018060405250810190610c1b9190611350565b9050600060018360025434610c309190611477565b610c3a919061151c565b610c4491906114b9565b905060008360035434610c579190611477565b610c61919061151c565b905080600460003373ffffffffffffffffffffffffffffffffffffffff1673ffffffffffffffffffffffffffffffffffffffff16815260200190815260200160002054610cae91906114b9565b600460003373ffffffffffffffffffffffffffffffffffffffff1673ffffffffffffffffffffffffffffffffffffffff1681526020019081526020016000208190555080600354610cff91906114b9565b60038190555060008111610d48576040517f08c379a0000000000000000000000000000000000000000000000000000000008152600401610d3f9061187d565b60405180910390fd5b60008054906101000a900473ffffffffffffffffffffffffffffffffffffffff1673ffffffffffffffffffffffffffffffffffffffff166323b872dd3330856040518463ffffffff1660e01b8152600401610da59392919061178e565b6020604051808303816000875af1158015610dc4573d6000803e3d6000fd5b505050506040513d601f19601f82011682018060405250810190610de891906113de565b610df157600080fd5b600160009054906101000a900473ffffffffffffffffffffffffffffffffffffffff1673ffffffffffffffffffffffffffffffffffffffff166340c10f1933836040518363ffffffff1660e01b8152600401610e4e92919061137d565b600060405180830381600087803b158015610e6857600080fd5b505af1158015610e7c573d6000803e3d6000fd5b505050507f91ede45f04a37a7c170f5c1207df3b6bc748dc1e04ad5e917a241d0f52feada333823485604051610eb594939291906116b7565b60405180910390a18194505050505090565b600047905060008054906101000a900473ffffffffffffffffffffffffffffffffffffffff1673ffffffffffffffffffffffffffffffffffffffff166370a08231306040518263ffffffff1660e01b8152600401610f259190611320565b602060405180830381865afa158015610f42573d6000803e3d6000fd5b505050506040513d601f19601f82011682018060405250810190610f669190611350565b600281905550600081600254610f7c9190611477565b905080600460008073ffffffffffffffffffffffffffffffffffffffff1673ffffffffffffffffffffffffffffffffffffffff1681526020019081526020016000206000828254610fcd91906114b9565b925050819055508060036000828254610fe691906114b9565b925050819055505050565b60008054906101000a900473ffffffffffffffffffffffffffffffffffffffff1681565b6000819050919050565b61102881611015565b82525050565b6000602082019050611043600083018461101f565b92915050565b600080fd5b61105781611015565b811461106257600080fd5b50565b6000813590506110748161104e565b92915050565b60008060006060848603121561109357611092611049565b5b60006110a186828701611065565b93505060206110b286828701611065565b92505060406110c386828701611065565b9150509250925092565b6000602082840312156110e3576110e2611049565b5b60006110f184828501611065565b91505092915050565b600060408201905061110f600083018561101f565b61111c602083018461101f565b9392505050565b600073ffffffffffffffffffffffffffffffffffffffff82169050919050565b6000819050919050565b600061116861116361115e84611123565b611143565b611123565b9050919050565b600061117a8261114d565b9050919050565b600061118c8261116f565b9050919050565b61119c81611181565b82525050565b60006020820190506111b76000830184611193565b92915050565b60006111c88261116f565b9050919050565b6111d8816111bd565b82525050565b60006020820190506111f360008301846111cf565b92915050565b600082825260208201905092915050565b7f4d617469632076616c75652073686f756c64206265206772656174657220746860008201527f616e203000000000000000000000000000000000000000000000000000000000602082015250565b60006112666024836111f9565b91506112718261120a565b604082019050919050565b6000602082019050818103600083015261129581611259565b9050919050565b7f4e487b7100000000000000000000000000000000000000000000000000000000600052601160045260246000fd5b60006112d682611015565b91506112e183611015565b92508282039050818111156112f9576112f861129c565b5b92915050565b600061130a82611123565b9050919050565b61131a816112ff565b82525050565b60006020820190506113356000830184611311565b92915050565b60008151905061134a8161104e565b92915050565b60006020828403121561136657611365611049565b5b60006113748482850161133b565b91505092915050565b60006040820190506113926000830185611311565b61139f602083018461101f565b9392505050565b60008115159050919050565b6113bb816113a6565b81146113c657600080fd5b50565b6000815190506113d8816113b2565b92915050565b6000602082840312156113f4576113f3611049565b5b6000611402848285016113c9565b91505092915050565b7f4e6f742061626c6520746f2073656e6420796f7520746f6b656e730000000000600082015250565b6000611441601b836111f9565b915061144c8261140b565b602082019050919050565b6000602082019050818103600083015261147081611434565b9050919050565b600061148282611015565b915061148d83611015565b925082820261149b81611015565b915082820484148315176114b2576114b161129c565b5b5092915050565b60006114c482611015565b91506114cf83611015565b92508282019050808211156114e7576114e661129c565b5b92915050565b7f4e487b7100000000000000000000000000000000000000000000000000000000600052601260045260246000fd5b600061152782611015565b915061153283611015565b925082611542576115416114ed565b5b828204905092915050565b7f77697468647261773a2073656e64657220646f6573206e6f742068617665206560008201527f6e6f756768206c697175696469747920746f2077697468647261772e00000000602082015250565b60006115a9603c836111f9565b91506115b48261154d565b604082019050919050565b600060208201905081810360008301526115d88161159c565b9050919050565b600081905092915050565b50565b60006115fa6000836115df565b9150611605826115ea565b600082019050919050565b600061161b826115ed565b9150819050919050565b7f776974686472617728293a2072657665727420696e207472616e73666572726960008201527f6e672065746820746f20796f7521000000000000000000000000000000000000602082015250565b6000611681602e836111f9565b915061168c82611625565b604082019050919050565b600060208201905081810360008301526116b081611674565b9050919050565b60006080820190506116cc6000830187611311565b6116d9602083018661101f565b6116e6604083018561101f565b6116f3606083018461101f565b95945050505050565b7f746f6b656e207377617020616d6f756e742073686f756c64206265206772656160008201527f746572207468616e203000000000000000000000000000000000000000000000602082015250565b6000611758602a836111f9565b9150611763826116fc565b604082019050919050565b600060208201905081810360008301526117878161174b565b9050919050565b60006060820190506117a36000830186611311565b6117b06020830185611311565b6117bd604083018461101f565b949350505050565b7f4661696c656420746f2073656e6420796f75206d617469630000000000000000600082015250565b60006117fb6018836111f9565b9150611806826117c5565b602082019050919050565b6000602082019050818103600083015261182a816117ee565b9050919050565b7f4e6f7420656e6f756768206c6971756964697479206d696e7465642100000000600082015250565b6000611867601c836111f9565b915061187282611831565b602082019050919050565b600060208201905081810360008301526118968161185a565b905091905056fea2646970667358221220b2991a96fc32fdc72529b217462e7c31e3aa642a695d4a32a47e55fad43720e664736f6c63430008110033",
  "linkReferences": {},
  "deployedLinkReferences": {}
}