{
  "_format": "hh-sol-artifact-1",
  "contractName": "UniswapClone",
  "sourceName": "contracts/UniswapClone.sol",
  "abi": [
    {
      "inputs": [
        {
          "internalType": "contract IERC20",
          "name": "_token",
          "type": "address"
        },
        {
          "internalType": "contract IUCToken",
          "name": "_lpToken",
          "type": "address"
        }
      ],
      "stateMutability": "nonpayable",
      "type": "constructor"
    },
    {
      "anonymous": false,
      "inputs": [
        {
          "indexed": false,
          "internalType": "address",
          "name": "sender",
          "type": "address"
        },
        {
          "indexed": false,
          "internalType": "uint256",
          "name": "liquidityMinted",
          "type": "uint256"
        },
        {
          "indexed": false,
          "internalType": "uint256",
          "name": "tokenValue",
          "type": "uint256"
        },
        {
          "indexed": false,
          "internalType": "uint256",
          "name": "maticValue",
          "type": "uint256"
        }
      ],
      "name": "Deposited",
      "type": "event"
    },
    {
      "anonymous": false,
      "inputs": [
        {
          "indexed": false,
          "internalType": "address",
          "name": "sender",
          "type": "address"
        },
        {
          "indexed": false,
          "internalType": "uint256",
          "name": "tokenValue",
          "type": "uint256"
        }
      ],
      "name": "MaticToToken",
      "type": "event"
    },
    {
      "anonymous": false,
      "inputs": [
        {
          "indexed": false,
          "internalType": "address",
          "name": "sender",
          "type": "address"
        },
        {
          "indexed": false,
          "internalType": "uint256",
          "name": "maticAmount",
          "type": "uint256"
        }
      ],
      "name": "TokenToMatic",
      "type": "event"
    },
    {
      "anonymous": false,
      "inputs": [
        {
          "indexed": false,
          "internalType": "address",
          "name": "sender",
          "type": "address"
        },
        {
          "indexed": false,
          "internalType": "uint256",
          "name": "amount",
          "type": "uint256"
        },
        {
          "indexed": false,
          "internalType": "uint256",
          "name": "ethWithdrawn",
          "type": "uint256"
        },
        {
          "indexed": false,
          "internalType": "uint256",
          "name": "tokenAmount",
          "type": "uint256"
        }
      ],
      "name": "Withdraw",
      "type": "event"
    },
    {
      "inputs": [],
      "name": "deposit",
      "outputs": [
        {
          "internalType": "uint256",
          "name": "",
          "type": "uint256"
        }
      ],
      "stateMutability": "payable",
      "type": "function"
    },
    {
      "inputs": [
        {
          "internalType": "uint256",
          "name": "inputToken",
          "type": "uint256"
        }
      ],
      "name": "getTokenDepositAmount",
      "outputs": [
        {
          "internalType": "uint256",
          "name": "",
          "type": "uint256"
        }
      ],
      "stateMutability": "view",
      "type": "function"
    },
    {
      "inputs": [],
      "name": "init",
      "outputs": [],
      "stateMutability": "nonpayable",
      "type": "function"
    },
    {
      "inputs": [],
      "name": "lpToken",
      "outputs": [
        {
          "internalType": "contract IUCToken",
          "name": "",
          "type": "address"
        }
      ],
      "stateMutability": "view",
      "type": "function"
    },
    {
      "inputs": [],
      "name": "maticToToken",
      "outputs": [],
      "stateMutability": "payable",
      "type": "function"
    },
    {
      "inputs": [
        {
          "internalType": "uint256",
          "name": "xToken",
          "type": "uint256"
        },
        {
          "internalType": "uint256",
          "name": "xTokenReserve",
          "type": "uint256"
        },
        {
          "internalType": "uint256",
          "name": "yTokenReserve",
          "type": "uint256"
        }
      ],
      "name": "price",
      "outputs": [
        {
          "internalType": "uint256",
          "name": "outputAmount",
          "type": "uint256"
        }
      ],
      "stateMutability": "pure",
      "type": "function"
    },
    {
      "inputs": [],
      "name": "token",
      "outputs": [
        {
          "internalType": "contract IERC20",
          "name": "",
          "type": "address"
        }
      ],
      "stateMutability": "view",
      "type": "function"
    },
    {
      "inputs": [],
      "name": "tokenReserve",
      "outputs": [
        {
          "internalType": "uint256",
          "name": "",
          "type": "uint256"
        }
      ],
      "stateMutability": "view",
      "type": "function"
    },
    {
      "inputs": [
        {
          "internalType": "uint256",
          "name": "amount",
          "type": "uint256"
        }
      ],
      "name": "tokenToMatic",
      "outputs": [],
      "stateMutability": "nonpayable",
      "type": "function"
    },
    {
      "inputs": [],
      "name": "totalLiquidity",
      "outputs": [
        {
          "internalType": "uint256",
          "name": "",
          "type": "uint256"
        }
      ],
      "stateMutability": "view",
      "type": "function"
    },
    {
      "inputs": [
        {
          "internalType": "uint256",
          "name": "amount",
          "type": "uint256"
        }
      ],
      "name": "withdraw",
      "outputs": [
        {
          "internalType": "uint256",
          "name": "",
          "type": "uint256"
        },
        {
          "internalType": "uint256",
          "name": "",
          "type": "uint256"
        }
      ],
      "stateMutability": "nonpayable",
      "type": "function"
    },
    {
      "stateMutability": "payable",
      "type": "receive"
    }
  ],
  "bytecode": "0x60806040523480156200001157600080fd5b5060405162001b2838038062001b28833981810160405281019062000037919062000183565b816000806101000a81548173ffffffffffffffffffffffffffffffffffffffff021916908373ffffffffffffffffffffffffffffffffffffffff16021790555080600160006101000a81548173ffffffffffffffffffffffffffffffffffffffff021916908373ffffffffffffffffffffffffffffffffffffffff1602179055505050620001ca565b600080fd5b600073ffffffffffffffffffffffffffffffffffffffff82169050919050565b6000620000f282620000c5565b9050919050565b60006200010682620000e5565b9050919050565b6200011881620000f9565b81146200012457600080fd5b50565b60008151905062000138816200010d565b92915050565b60006200014b82620000e5565b9050919050565b6200015d816200013e565b81146200016957600080fd5b50565b6000815190506200017d8162000152565b92915050565b600080604083850312156200019d576200019c620000c0565b5b6000620001ad8582860162000127565b9250506020620001c0858286016200016c565b9150509250929050565b61194e80620001da6000396000f3fe6080604052600436106100a05760003560e01c80635fcbd285116100645780635fcbd28514610199578063c6461a98146101c4578063cbcb3171146101ed578063d0e30db014610218578063e1c7392a14610236578063fc0c546a1461024d576100a7565b806315770f92146100ac5780631bd3f639146100d75780632071a9f4146100e15780632e1a7d4d1461011e5780635ef796d51461015c576100a7565b366100a757005b600080fd5b3480156100b857600080fd5b506100c1610278565b6040516100ce91906110a9565b60405180910390f35b6100df61027e565b005b3480156100ed57600080fd5b50610108600480360381019061010391906110f5565b61049a565b60405161011591906110a9565b60405180910390f35b34801561012a57600080fd5b5061014560048036038101906101409190611148565b6104d2565b604051610153929190611175565b60405180910390f35b34801561016857600080fd5b50610183600480360381019061017e9190611148565b610906565b60405161019091906110a9565b60405180910390f35b3480156101a557600080fd5b506101ae610939565b6040516101bb919061121d565b60405180910390f35b3480156101d057600080fd5b506101eb60048036038101906101e69190611148565b61095f565b005b3480156101f957600080fd5b50610202610be2565b60405161020f91906110a9565b60405180910390f35b610220610be8565b60405161022d91906110a9565b60405180910390f35b34801561024257600080fd5b5061024b610f42565b005b34801561025957600080fd5b5061026261106c565b60405161026f9190611259565b60405180910390f35b60035481565b600034116102c1576040517f08c379a00000000000000000000000000000000000000000000000000000000081526004016102b8906112f7565b60405180910390fd5b600034476102cf9190611346565b905060008060009054906101000a900473ffffffffffffffffffffffffffffffffffffffff1673ffffffffffffffffffffffffffffffffffffffff166370a08231306040518263ffffffff1660e01b815260040161032d919061139b565b602060405180830381865afa15801561034a573d6000803e3d6000fd5b505050506040513d601f19601f8201168201806040525081019061036e91906113cb565b9050600061037d34848461049a565b905060008054906101000a900473ffffffffffffffffffffffffffffffffffffffff1673ffffffffffffffffffffffffffffffffffffffff1663a9059cbb33836040518363ffffffff1660e01b81526004016103da9291906113f8565b6020604051808303816000875af11580156103f9573d6000803e3d6000fd5b505050506040513d601f19601f8201168201806040525081019061041d9190611459565b61045c576040517f08c379a0000000000000000000000000000000000000000000000000000000008152600401610453906114d2565b60405180910390fd5b7f6dad6513ae0ad4e455953fe81884340543d50ce706af59c3845c6c0aa1ec540c338260405161048d9291906113f8565b60405180910390a1505050565b60008082856104a991906114f2565b9050600085856104b99190611534565b905080826104c79190611597565b925050509392505050565b60008082600460003373ffffffffffffffffffffffffffffffffffffffff1673ffffffffffffffffffffffffffffffffffffffff168152602001908152602001600020541015610557576040517f08c379a000000000000000000000000000000000000000000000000000000000815260040161054e9061163a565b60405180910390fd5b600047905060008060009054906101000a900473ffffffffffffffffffffffffffffffffffffffff1673ffffffffffffffffffffffffffffffffffffffff166370a08231306040518263ffffffff1660e01b81526004016105b8919061139b565b602060405180830381865afa1580156105d5573d6000803e3d6000fd5b505050506040513d601f19601f820116820180604052508101906105f991906113cb565b90506000600354838761060c91906114f2565b6106169190611597565b90506000600354838861062991906114f2565b6106339190611597565b905086600460003373ffffffffffffffffffffffffffffffffffffffff1673ffffffffffffffffffffffffffffffffffffffff168152602001908152602001600020546106809190611346565b600460003373ffffffffffffffffffffffffffffffffffffffff1673ffffffffffffffffffffffffffffffffffffffff16815260200190815260200160002081905550866003546106d19190611346565b600381905550600160009054906101000a900473ffffffffffffffffffffffffffffffffffffffff1673ffffffffffffffffffffffffffffffffffffffff166379cc679033896040518363ffffffff1660e01b81526004016107349291906113f8565b600060405180830381600087803b15801561074e57600080fd5b505af1158015610762573d6000803e3d6000fd5b5050505060003373ffffffffffffffffffffffffffffffffffffffff168360405161078c9061168b565b60006040518083038185875af1925050503d80600081146107c9576040519150601f19603f3d011682016040523d82523d6000602084013e6107ce565b606091505b5050905080610812576040517f08c379a000000000000000000000000000000000000000000000000000000000815260040161080990611712565b60405180910390fd5b60008054906101000a900473ffffffffffffffffffffffffffffffffffffffff1673ffffffffffffffffffffffffffffffffffffffff1663a9059cbb33846040518363ffffffff1660e01b815260040161086d9291906113f8565b6020604051808303816000875af115801561088c573d6000803e3d6000fd5b505050506040513d601f19601f820116820180604052508101906108b09190611459565b6108b957600080fd5b7f02f25270a4d87bea75db541cdfe559334a275b4a233520ed6c0a2429667cca94338985856040516108ee9493929190611732565b60405180910390a18282965096505050505050915091565b6000804790506001816002548561091d91906114f2565b6109279190611597565b6109319190611534565b915050919050565b600160009054906101000a900473ffffffffffffffffffffffffffffffffffffffff1681565b600081116109a2576040517f08c379a0000000000000000000000000000000000000000000000000000000008152600401610999906117e9565b60405180910390fd5b600047905060008060009054906101000a900473ffffffffffffffffffffffffffffffffffffffff1673ffffffffffffffffffffffffffffffffffffffff166370a08231306040518263ffffffff1660e01b8152600401610a03919061139b565b602060405180830381865afa158015610a20573d6000803e3d6000fd5b505050506040513d601f19601f82011682018060405250810190610a4491906113cb565b90506000610a5384838561049a565b905060008054906101000a900473ffffffffffffffffffffffffffffffffffffffff1673ffffffffffffffffffffffffffffffffffffffff166323b872dd3330876040518463ffffffff1660e01b8152600401610ab293929190611809565b6020604051808303816000875af1158015610ad1573d6000803e3d6000fd5b505050506040513d601f19601f82011682018060405250810190610af59190611459565b5060003373ffffffffffffffffffffffffffffffffffffffff1682604051610b1c9061168b565b60006040518083038185875af1925050503d8060008114610b59576040519150601f19603f3d011682016040523d82523d6000602084013e610b5e565b606091505b5050905080610ba2576040517f08c379a0000000000000000000000000000000000000000000000000000000008152600401610b999061188c565b60405180910390fd5b7f1bf7f115b5bfb24c90caf5673afb9e4f37bb44539d5a682579cb01ce3b3fac4b3383604051610bd39291906113f8565b60405180910390a15050505050565b60025481565b6000803447610bf79190611346565b905060008060009054906101000a900473ffffffffffffffffffffffffffffffffffffffff1673ffffffffffffffffffffffffffffffffffffffff166370a08231306040518263ffffffff1660e01b8152600401610c55919061139b565b602060405180830381865afa158015610c72573d6000803e3d6000fd5b505050506040513d601f19601f82011682018060405250810190610c9691906113cb565b9050600060018360025434610cab91906114f2565b610cb59190611597565b610cbf9190611534565b905060008360035434610cd291906114f2565b610cdc9190611597565b905080600460003373ffffffffffffffffffffffffffffffffffffffff1673ffffffffffffffffffffffffffffffffffffffff16815260200190815260200160002054610d299190611534565b600460003373ffffffffffffffffffffffffffffffffffffffff1673ffffffffffffffffffffffffffffffffffffffff1681526020019081526020016000208190555080600354610d7a9190611534565b60038190555060008111610dc3576040517f08c379a0000000000000000000000000000000000000000000000000000000008152600401610dba906118f8565b60405180910390fd5b60008054906101000a900473ffffffffffffffffffffffffffffffffffffffff1673ffffffffffffffffffffffffffffffffffffffff166323b872dd3330856040518463ffffffff1660e01b8152600401610e2093929190611809565b6020604051808303816000875af1158015610e3f573d6000803e3d6000fd5b505050506040513d601f19601f82011682018060405250810190610e639190611459565b610e6c57600080fd5b600160009054906101000a900473ffffffffffffffffffffffffffffffffffffffff1673ffffffffffffffffffffffffffffffffffffffff166340c10f1933836040518363ffffffff1660e01b8152600401610ec99291906113f8565b600060405180830381600087803b158015610ee357600080fd5b505af1158015610ef7573d6000803e3d6000fd5b505050507f91ede45f04a37a7c170f5c1207df3b6bc748dc1e04ad5e917a241d0f52feada333823485604051610f309493929190611732565b60405180910390a18194505050505090565b600047905060008054906101000a900473ffffffffffffffffffffffffffffffffffffffff1673ffffffffffffffffffffffffffffffffffffffff166370a08231306040518263ffffffff1660e01b8152600401610fa0919061139b565b602060405180830381865afa158015610fbd573d6000803e3d6000fd5b505050506040513d601f19601f82011682018060405250810190610fe191906113cb565b600281905550600081600254610ff791906114f2565b905080600460008073ffffffffffffffffffffffffffffffffffffffff1673ffffffffffffffffffffffffffffffffffffffff16815260200190815260200160002060008282546110489190611534565b9250508190555080600360008282546110619190611534565b925050819055505050565b60008054906101000a900473ffffffffffffffffffffffffffffffffffffffff1681565b6000819050919050565b6110a381611090565b82525050565b60006020820190506110be600083018461109a565b92915050565b600080fd5b6110d281611090565b81146110dd57600080fd5b50565b6000813590506110ef816110c9565b92915050565b60008060006060848603121561110e5761110d6110c4565b5b600061111c868287016110e0565b935050602061112d868287016110e0565b925050604061113e868287016110e0565b9150509250925092565b60006020828403121561115e5761115d6110c4565b5b600061116c848285016110e0565b91505092915050565b600060408201905061118a600083018561109a565b611197602083018461109a565b9392505050565b600073ffffffffffffffffffffffffffffffffffffffff82169050919050565b6000819050919050565b60006111e36111de6111d98461119e565b6111be565b61119e565b9050919050565b60006111f5826111c8565b9050919050565b6000611207826111ea565b9050919050565b611217816111fc565b82525050565b6000602082019050611232600083018461120e565b92915050565b6000611243826111ea565b9050919050565b61125381611238565b82525050565b600060208201905061126e600083018461124a565b92915050565b600082825260208201905092915050565b7f4d617469632076616c75652073686f756c64206265206772656174657220746860008201527f616e203000000000000000000000000000000000000000000000000000000000602082015250565b60006112e1602483611274565b91506112ec82611285565b604082019050919050565b60006020820190508181036000830152611310816112d4565b9050919050565b7f4e487b7100000000000000000000000000000000000000000000000000000000600052601160045260246000fd5b600061135182611090565b915061135c83611090565b925082820390508181111561137457611373611317565b5b92915050565b60006113858261119e565b9050919050565b6113958161137a565b82525050565b60006020820190506113b0600083018461138c565b92915050565b6000815190506113c5816110c9565b92915050565b6000602082840312156113e1576113e06110c4565b5b60006113ef848285016113b6565b91505092915050565b600060408201905061140d600083018561138c565b61141a602083018461109a565b9392505050565b60008115159050919050565b61143681611421565b811461144157600080fd5b50565b6000815190506114538161142d565b92915050565b60006020828403121561146f5761146e6110c4565b5b600061147d84828501611444565b91505092915050565b7f4e6f742061626c6520746f2073656e6420796f7520746f6b656e730000000000600082015250565b60006114bc601b83611274565b91506114c782611486565b602082019050919050565b600060208201905081810360008301526114eb816114af565b9050919050565b60006114fd82611090565b915061150883611090565b925082820261151681611090565b9150828204841483151761152d5761152c611317565b5b5092915050565b600061153f82611090565b915061154a83611090565b925082820190508082111561156257611561611317565b5b92915050565b7f4e487b7100000000000000000000000000000000000000000000000000000000600052601260045260246000fd5b60006115a282611090565b91506115ad83611090565b9250826115bd576115bc611568565b5b828204905092915050565b7f77697468647261773a2073656e64657220646f6573206e6f742068617665206560008201527f6e6f756768206c697175696469747920746f2077697468647261772e00000000602082015250565b6000611624603c83611274565b915061162f826115c8565b604082019050919050565b6000602082019050818103600083015261165381611617565b9050919050565b600081905092915050565b50565b600061167560008361165a565b915061168082611665565b600082019050919050565b600061169682611668565b9150819050919050565b7f776974686472617728293a2072657665727420696e207472616e73666572726960008201527f6e672065746820746f20796f7521000000000000000000000000000000000000602082015250565b60006116fc602e83611274565b9150611707826116a0565b604082019050919050565b6000602082019050818103600083015261172b816116ef565b9050919050565b6000608082019050611747600083018761138c565b611754602083018661109a565b611761604083018561109a565b61176e606083018461109a565b95945050505050565b7f746f6b656e207377617020616d6f756e742073686f756c64206265206772656160008201527f746572207468616e203000000000000000000000000000000000000000000000602082015250565b60006117d3602a83611274565b91506117de82611777565b604082019050919050565b60006020820190508181036000830152611802816117c6565b9050919050565b600060608201905061181e600083018661138c565b61182b602083018561138c565b611838604083018461109a565b949350505050565b7f4661696c656420746f2073656e6420796f75206d617469630000000000000000600082015250565b6000611876601883611274565b915061188182611840565b602082019050919050565b600060208201905081810360008301526118a581611869565b9050919050565b7f4e6f7420656e6f756768206c6971756964697479206d696e7465642100000000600082015250565b60006118e2601c83611274565b91506118ed826118ac565b602082019050919050565b60006020820190508181036000830152611911816118d5565b905091905056fea26469706673582212200f57c90de0e4d6459d190f736cb1135d6895716023baffa29b66d8e5af3dc5a564736f6c63430008110033",
  "linkReferences": {},
  "deployedLinkReferences": {}
}